{
  "_format": "hh-sol-artifact-1",
  "contractName": "RemixCancunNFT",
  "sourceName": "contracts/nft.sol",
  "abi": [
    {
      "inputs": [
        {
          "internalType": "uint256",
          "name": "_maxNFTs",
          "type": "uint256"
        }
      ],
      "stateMutability": "nonpayable",
      "type": "constructor"
    },
    {
      "inputs": [
        {
          "internalType": "address",
          "name": "sender",
          "type": "address"
        },
        {
          "internalType": "uint256",
          "name": "tokenId",
          "type": "uint256"
        },
        {
          "internalType": "address",
          "name": "owner",
          "type": "address"
        }
      ],
      "name": "ERC721IncorrectOwner",
      "type": "error"
    },
    {
      "inputs": [
        {
          "internalType": "address",
          "name": "operator",
          "type": "address"
        },
        {
          "internalType": "uint256",
          "name": "tokenId",
          "type": "uint256"
        }
      ],
      "name": "ERC721InsufficientApproval",
      "type": "error"
    },
    {
      "inputs": [
        {
          "internalType": "address",
          "name": "approver",
          "type": "address"
        }
      ],
      "name": "ERC721InvalidApprover",
      "type": "error"
    },
    {
      "inputs": [
        {
          "internalType": "address",
          "name": "operator",
          "type": "address"
        }
      ],
      "name": "ERC721InvalidOperator",
      "type": "error"
    },
    {
      "inputs": [
        {
          "internalType": "address",
          "name": "owner",
          "type": "address"
        }
      ],
      "name": "ERC721InvalidOwner",
      "type": "error"
    },
    {
      "inputs": [
        {
          "internalType": "address",
          "name": "receiver",
          "type": "address"
        }
      ],
      "name": "ERC721InvalidReceiver",
      "type": "error"
    },
    {
      "inputs": [
        {
          "internalType": "address",
          "name": "sender",
          "type": "address"
        }
      ],
      "name": "ERC721InvalidSender",
      "type": "error"
    },
    {
      "inputs": [
        {
          "internalType": "uint256",
          "name": "tokenId",
          "type": "uint256"
        }
      ],
      "name": "ERC721NonexistentToken",
      "type": "error"
    },
    {
      "inputs": [
        {
          "internalType": "address",
          "name": "owner",
          "type": "address"
        }
      ],
      "name": "OwnableInvalidOwner",
      "type": "error"
    },
    {
      "inputs": [
        {
          "internalType": "address",
          "name": "account",
          "type": "address"
        }
      ],
      "name": "OwnableUnauthorizedAccount",
      "type": "error"
    },
    {
      "anonymous": false,
      "inputs": [
        {
          "indexed": true,
          "internalType": "address",
          "name": "owner",
          "type": "address"
        },
        {
          "indexed": true,
          "internalType": "address",
          "name": "approved",
          "type": "address"
        },
        {
          "indexed": true,
          "internalType": "uint256",
          "name": "tokenId",
          "type": "uint256"
        }
      ],
      "name": "Approval",
      "type": "event"
    },
    {
      "anonymous": false,
      "inputs": [
        {
          "indexed": true,
          "internalType": "address",
          "name": "owner",
          "type": "address"
        },
        {
          "indexed": true,
          "internalType": "address",
          "name": "operator",
          "type": "address"
        },
        {
          "indexed": false,
          "internalType": "bool",
          "name": "approved",
          "type": "bool"
        }
      ],
      "name": "ApprovalForAll",
      "type": "event"
    },
    {
      "anonymous": false,
      "inputs": [
        {
          "indexed": false,
          "internalType": "uint256",
          "name": "_fromTokenId",
          "type": "uint256"
        },
        {
          "indexed": false,
          "internalType": "uint256",
          "name": "_toTokenId",
          "type": "uint256"
        }
      ],
      "name": "BatchMetadataUpdate",
      "type": "event"
    },
    {
      "anonymous": false,
      "inputs": [
        {
          "indexed": false,
          "internalType": "uint256",
          "name": "_tokenId",
          "type": "uint256"
        }
      ],
      "name": "MetadataUpdate",
      "type": "event"
    },
    {
      "anonymous": false,
      "inputs": [
        {
          "indexed": true,
          "internalType": "address",
          "name": "previousOwner",
          "type": "address"
        },
        {
          "indexed": true,
          "internalType": "address",
          "name": "newOwner",
          "type": "address"
        }
      ],
      "name": "OwnershipTransferred",
      "type": "event"
    },
    {
      "anonymous": false,
      "inputs": [
        {
          "indexed": true,
          "internalType": "address",
          "name": "from",
          "type": "address"
        },
        {
          "indexed": true,
          "internalType": "address",
          "name": "to",
          "type": "address"
        },
        {
          "indexed": true,
          "internalType": "uint256",
          "name": "tokenId",
          "type": "uint256"
        }
      ],
      "name": "Transfer",
      "type": "event"
    },
    {
      "inputs": [
        {
          "internalType": "address",
          "name": "to",
          "type": "address"
        },
        {
          "internalType": "uint256",
          "name": "tokenId",
          "type": "uint256"
        }
      ],
      "name": "approve",
      "outputs": [],
      "stateMutability": "nonpayable",
      "type": "function"
    },
    {
      "inputs": [
        {
          "internalType": "address",
          "name": "owner",
          "type": "address"
        }
      ],
      "name": "balanceOf",
      "outputs": [
        {
          "internalType": "uint256",
          "name": "",
          "type": "uint256"
        }
      ],
      "stateMutability": "view",
      "type": "function"
    },
    {
      "inputs": [
        {
          "internalType": "uint256",
          "name": "tokenId",
          "type": "uint256"
        }
      ],
      "name": "getApproved",
      "outputs": [
        {
          "internalType": "address",
          "name": "",
          "type": "address"
        }
      ],
      "stateMutability": "view",
      "type": "function"
    },
    {
      "inputs": [
        {
          "internalType": "address",
          "name": "user",
          "type": "address"
        }
      ],
      "name": "getNFTCount",
      "outputs": [
        {
          "internalType": "uint256",
          "name": "",
          "type": "uint256"
        }
      ],
      "stateMutability": "view",
      "type": "function"
    },
    {
      "inputs": [
        {
          "internalType": "address",
          "name": "owner",
          "type": "address"
        },
        {
          "internalType": "address",
          "name": "operator",
          "type": "address"
        }
      ],
      "name": "isApprovedForAll",
      "outputs": [
        {
          "internalType": "bool",
          "name": "",
          "type": "bool"
        }
      ],
      "stateMutability": "view",
      "type": "function"
    },
    {
      "inputs": [],
      "name": "maxNFTsPerUser",
      "outputs": [
        {
          "internalType": "uint256",
          "name": "",
          "type": "uint256"
        }
      ],
      "stateMutability": "view",
      "type": "function"
    },
    {
      "inputs": [
        {
          "internalType": "address",
          "name": "recipient",
          "type": "address"
        },
        {
          "internalType": "string",
          "name": "tokenURI",
          "type": "string"
        }
      ],
      "name": "mintNFT",
      "outputs": [
        {
          "internalType": "uint256",
          "name": "",
          "type": "uint256"
        }
      ],
      "stateMutability": "nonpayable",
      "type": "function"
    },
    {
      "inputs": [],
      "name": "name",
      "outputs": [
        {
          "internalType": "string",
          "name": "",
          "type": "string"
        }
      ],
      "stateMutability": "view",
      "type": "function"
    },
    {
      "inputs": [
        {
          "internalType": "address",
          "name": "",
          "type": "address"
        }
      ],
      "name": "nftCountPerUser",
      "outputs": [
        {
          "internalType": "uint256",
          "name": "",
          "type": "uint256"
        }
      ],
      "stateMutability": "view",
      "type": "function"
    },
    {
      "inputs": [],
      "name": "owner",
      "outputs": [
        {
          "internalType": "address",
          "name": "",
          "type": "address"
        }
      ],
      "stateMutability": "view",
      "type": "function"
    },
    {
      "inputs": [
        {
          "internalType": "uint256",
          "name": "tokenId",
          "type": "uint256"
        }
      ],
      "name": "ownerOf",
      "outputs": [
        {
          "internalType": "address",
          "name": "",
          "type": "address"
        }
      ],
      "stateMutability": "view",
      "type": "function"
    },
    {
      "inputs": [],
      "name": "renounceOwnership",
      "outputs": [],
      "stateMutability": "nonpayable",
      "type": "function"
    },
    {
      "inputs": [
        {
          "internalType": "address",
          "name": "from",
          "type": "address"
        },
        {
          "internalType": "address",
          "name": "to",
          "type": "address"
        },
        {
          "internalType": "uint256",
          "name": "tokenId",
          "type": "uint256"
        }
      ],
      "name": "safeTransferFrom",
      "outputs": [],
      "stateMutability": "nonpayable",
      "type": "function"
    },
    {
      "inputs": [
        {
          "internalType": "address",
          "name": "from",
          "type": "address"
        },
        {
          "internalType": "address",
          "name": "to",
          "type": "address"
        },
        {
          "internalType": "uint256",
          "name": "tokenId",
          "type": "uint256"
        },
        {
          "internalType": "bytes",
          "name": "data",
          "type": "bytes"
        }
      ],
      "name": "safeTransferFrom",
      "outputs": [],
      "stateMutability": "nonpayable",
      "type": "function"
    },
    {
      "inputs": [
        {
          "internalType": "address",
          "name": "operator",
          "type": "address"
        },
        {
          "internalType": "bool",
          "name": "approved",
          "type": "bool"
        }
      ],
      "name": "setApprovalForAll",
      "outputs": [],
      "stateMutability": "nonpayable",
      "type": "function"
    },
    {
      "inputs": [
        {
          "internalType": "bytes4",
          "name": "interfaceId",
          "type": "bytes4"
        }
      ],
      "name": "supportsInterface",
      "outputs": [
        {
          "internalType": "bool",
          "name": "",
          "type": "bool"
        }
      ],
      "stateMutability": "view",
      "type": "function"
    },
    {
      "inputs": [],
      "name": "symbol",
      "outputs": [
        {
          "internalType": "string",
          "name": "",
          "type": "string"
        }
      ],
      "stateMutability": "view",
      "type": "function"
    },
    {
      "inputs": [],
      "name": "tokenCounter",
      "outputs": [
        {
          "internalType": "uint256",
          "name": "",
          "type": "uint256"
        }
      ],
      "stateMutability": "view",
      "type": "function"
    },
    {
      "inputs": [
        {
          "internalType": "uint256",
          "name": "tokenId",
          "type": "uint256"
        }
      ],
      "name": "tokenURI",
      "outputs": [
        {
          "internalType": "string",
          "name": "",
          "type": "string"
        }
      ],
      "stateMutability": "view",
      "type": "function"
    },
    {
      "inputs": [
        {
          "internalType": "address",
          "name": "from",
          "type": "address"
        },
        {
          "internalType": "address",
          "name": "to",
          "type": "address"
        },
        {
          "internalType": "uint256",
          "name": "tokenId",
          "type": "uint256"
        }
      ],
      "name": "transferFrom",
      "outputs": [],
      "stateMutability": "nonpayable",
      "type": "function"
    },
    {
      "inputs": [
        {
          "internalType": "address",
          "name": "from",
          "type": "address"
        },
        {
          "internalType": "address",
          "name": "to",
          "type": "address"
        },
        {
          "internalType": "uint256",
          "name": "tokenId",
          "type": "uint256"
        }
      ],
      "name": "transferNFT",
      "outputs": [],
      "stateMutability": "nonpayable",
      "type": "function"
    },
    {
      "inputs": [
        {
          "internalType": "address",
          "name": "newOwner",
          "type": "address"
        }
      ],
      "name": "transferOwnership",
      "outputs": [],
      "stateMutability": "nonpayable",
      "type": "function"
    }
  ],
  "bytecode": "0x608060405234801561001057600080fd5b5060405161329438038061329483398181016040528101906100329190610259565b336040518060400160405280600e81526020017f52656d697843616e63756e4e46540000000000000000000000000000000000008152506040518060400160405280600581526020017f52434e465400000000000000000000000000000000000000000000000000000081525081600090816100ae91906104cc565b5080600190816100be91906104cc565b505050600073ffffffffffffffffffffffffffffffffffffffff168173ffffffffffffffffffffffffffffffffffffffff16036101335760006040517f1e4fbdf700000000000000000000000000000000000000000000000000000000815260040161012a91906105df565b60405180910390fd5b6101428161015860201b60201c565b50600060088190555080600981905550506105fa565b6000600760009054906101000a900473ffffffffffffffffffffffffffffffffffffffff16905081600760006101000a81548173ffffffffffffffffffffffffffffffffffffffff021916908373ffffffffffffffffffffffffffffffffffffffff1602179055508173ffffffffffffffffffffffffffffffffffffffff168173ffffffffffffffffffffffffffffffffffffffff167f8be0079c531659141344cd1fd0a4f28419497f9722a3daafe3b4186f6b6457e060405160405180910390a35050565b600080fd5b6000819050919050565b61023681610223565b811461024157600080fd5b50565b6000815190506102538161022d565b92915050565b60006020828403121561026f5761026e61021e565b5b600061027d84828501610244565b91505092915050565b600081519050919050565b7f4e487b7100000000000000000000000000000000000000000000000000000000600052604160045260246000fd5b7f4e487b7100000000000000000000000000000000000000000000000000000000600052602260045260246000fd5b6000600282049050600182168061030757607f821691505b60208210810361031a576103196102c0565b5b50919050565b60008190508160005260206000209050919050565b60006020601f8301049050919050565b600082821b905092915050565b6000600883026103827fffffffffffffffffffffffffffffffffffffffffffffffffffffffffffffffff82610345565b61038c8683610345565b95508019841693508086168417925050509392505050565b6000819050919050565b60006103c96103c46103bf84610223565b6103a4565b610223565b9050919050565b6000819050919050565b6103e3836103ae565b6103f76103ef826103d0565b848454610352565b825550505050565b600090565b61040c6103ff565b6104178184846103da565b505050565b5b8181101561043b57610430600082610404565b60018101905061041d565b5050565b601f8211156104805761045181610320565b61045a84610335565b81016020851015610469578190505b61047d61047585610335565b83018261041c565b50505b505050565b600082821c905092915050565b60006104a360001984600802610485565b1980831691505092915050565b60006104bc8383610492565b9150826002028217905092915050565b6104d582610286565b67ffffffffffffffff8111156104ee576104ed610291565b5b6104f882546102ef565b61050382828561043f565b600060209050601f8311600181146105365760008415610524578287015190505b61052e85826104b0565b865550610596565b601f19841661054486610320565b60005b8281101561056c57848901518255600182019150602085019450602081019050610547565b868310156105895784890151610585601f891682610492565b8355505b6001600288020188555050505b505050505050565b600073ffffffffffffffffffffffffffffffffffffffff82169050919050565b60006105c98261059e565b9050919050565b6105d9816105be565b82525050565b60006020820190506105f460008301846105d0565b92915050565b612c8b806106096000396000f3fe608060405234801561001057600080fd5b50600436106101425760003560e01c80638da5cb5b116100b8578063d082e3811161007c578063d082e38114610361578063e8fb8b7f1461037f578063e985e9c5146103af578063eacabe14146103df578063f2fde38b1461040f578063f41d3f691461042b57610142565b80638da5cb5b146102bd57806395d89b41146102db578063a22cb465146102f9578063b88d4fde14610315578063c87b56dd1461033157610142565b806342842e0e1161010a57806342842e0e146101fd5780636352211e1461021957806369e9cae11461024957806370a0823114610265578063715018a6146102955780638c94ec131461029f57610142565b806301ffc9a71461014757806306fdde0314610177578063081812fc14610195578063095ea7b3146101c557806323b872dd146101e1575b600080fd5b610161600480360381019061015c9190611fae565b61045b565b60405161016e9190611ff6565b60405180910390f35b61017f6104bc565b60405161018c91906120a1565b60405180910390f35b6101af60048036038101906101aa91906120f9565b61054e565b6040516101bc9190612167565b60405180910390f35b6101df60048036038101906101da91906121ae565b61056a565b005b6101fb60048036038101906101f691906121ee565b610580565b005b610217600480360381019061021291906121ee565b610682565b005b610233600480360381019061022e91906120f9565b6106a2565b6040516102409190612167565b60405180910390f35b610263600480360381019061025e91906121ee565b6106b4565b005b61027f600480360381019061027a9190612241565b6107e4565b60405161028c919061227d565b60405180910390f35b61029d61089e565b005b6102a76108b2565b6040516102b4919061227d565b60405180910390f35b6102c56108b8565b6040516102d29190612167565b60405180910390f35b6102e36108e2565b6040516102f091906120a1565b60405180910390f35b610313600480360381019061030e91906122c4565b610974565b005b61032f600480360381019061032a9190612439565b61098a565b005b61034b600480360381019061034691906120f9565b6109af565b60405161035891906120a1565b60405180910390f35b610369610ac2565b604051610376919061227d565b60405180910390f35b61039960048036038101906103949190612241565b610ac8565b6040516103a6919061227d565b60405180910390f35b6103c960048036038101906103c491906124bc565b610ae0565b6040516103d69190611ff6565b60405180910390f35b6103f960048036038101906103f4919061259d565b610b74565b604051610406919061227d565b60405180910390f35b61042960048036038101906104249190612241565b610c95565b005b61044560048036038101906104409190612241565b610d1b565b604051610452919061227d565b60405180910390f35b6000634906490660e01b7bffffffffffffffffffffffffffffffffffffffffffffffffffffffff1916827bffffffffffffffffffffffffffffffffffffffffffffffffffffffff191614806104b557506104b482610d64565b5b9050919050565b6060600080546104cb90612628565b80601f01602080910402602001604051908101604052809291908181526020018280546104f790612628565b80156105445780601f1061051957610100808354040283529160200191610544565b820191906000526020600020905b81548152906001019060200180831161052757829003601f168201915b5050505050905090565b600061055982610e46565b5061056382610ece565b9050919050565b61057c8282610577610f0b565b610f13565b5050565b600073ffffffffffffffffffffffffffffffffffffffff168273ffffffffffffffffffffffffffffffffffffffff16036105f25760006040517f64a0ae920000000000000000000000000000000000000000000000000000000081526004016105e99190612167565b60405180910390fd5b60006106068383610601610f0b565b610f25565b90508373ffffffffffffffffffffffffffffffffffffffff168173ffffffffffffffffffffffffffffffffffffffff161461067c578382826040517f64283d7b00000000000000000000000000000000000000000000000000000000815260040161067393929190612659565b60405180910390fd5b50505050565b61069d8383836040518060200160405280600081525061098a565b505050565b60006106ad82610e46565b9050919050565b6106bd816106a2565b73ffffffffffffffffffffffffffffffffffffffff163373ffffffffffffffffffffffffffffffffffffffff161461072a576040517f08c379a0000000000000000000000000000000000000000000000000000000008152600401610721906126dc565b60405180910390fd5b61073583838361113f565b600a60008473ffffffffffffffffffffffffffffffffffffffff1673ffffffffffffffffffffffffffffffffffffffff16815260200190815260200160002060008154809291906107859061272b565b9190505550600a60008373ffffffffffffffffffffffffffffffffffffffff1673ffffffffffffffffffffffffffffffffffffffff16815260200190815260200160002060008154809291906107da90612754565b9190505550505050565b60008073ffffffffffffffffffffffffffffffffffffffff168273ffffffffffffffffffffffffffffffffffffffff16036108575760006040517f89c62b6400000000000000000000000000000000000000000000000000000000815260040161084e9190612167565b60405180910390fd5b600360008373ffffffffffffffffffffffffffffffffffffffff1673ffffffffffffffffffffffffffffffffffffffff168152602001908152602001600020549050919050565b6108a66112ac565b6108b06000611333565b565b60095481565b6000600760009054906101000a900473ffffffffffffffffffffffffffffffffffffffff16905090565b6060600180546108f190612628565b80601f016020809104026020016040519081016040528092919081815260200182805461091d90612628565b801561096a5780601f1061093f5761010080835404028352916020019161096a565b820191906000526020600020905b81548152906001019060200180831161094d57829003601f168201915b5050505050905090565b61098661097f610f0b565b83836113f9565b5050565b610995848484610580565b6109a96109a0610f0b565b85858585611568565b50505050565b60606109ba82610e46565b5060006006600084815260200190815260200160002080546109db90612628565b80601f0160208091040260200160405190810160405280929190818152602001828054610a0790612628565b8015610a545780601f10610a2957610100808354040283529160200191610a54565b820191906000526020600020905b815481529060010190602001808311610a3757829003601f168201915b505050505090506000610a65611719565b90506000815103610a7a578192505050610abd565b600082511115610aaf578082604051602001610a979291906127d8565b60405160208183030381529060405292505050610abd565b610ab884611730565b925050505b919050565b60085481565b600a6020528060005260406000206000915090505481565b6000600560008473ffffffffffffffffffffffffffffffffffffffff1673ffffffffffffffffffffffffffffffffffffffff16815260200190815260200160002060008373ffffffffffffffffffffffffffffffffffffffff1673ffffffffffffffffffffffffffffffffffffffff16815260200190815260200160002060009054906101000a900460ff16905092915050565b6000610b7e6112ac565b600954600a60008573ffffffffffffffffffffffffffffffffffffffff1673ffffffffffffffffffffffffffffffffffffffff1681526020019081526020016000205410610c01576040517f08c379a0000000000000000000000000000000000000000000000000000000008152600401610bf890612848565b60405180910390fd5b600a60008473ffffffffffffffffffffffffffffffffffffffff1673ffffffffffffffffffffffffffffffffffffffff1681526020019081526020016000206000815480929190610c5190612754565b919050555060006008549050610c678482611799565b610c7181846117b7565b600160086000828254610c849190612868565b925050819055508091505092915050565b610c9d6112ac565b600073ffffffffffffffffffffffffffffffffffffffff168173ffffffffffffffffffffffffffffffffffffffff1603610d0f5760006040517f1e4fbdf7000000000000000000000000000000000000000000000000000000008152600401610d069190612167565b60405180910390fd5b610d1881611333565b50565b6000600a60008373ffffffffffffffffffffffffffffffffffffffff1673ffffffffffffffffffffffffffffffffffffffff168152602001908152602001600020549050919050565b60007f80ac58cd000000000000000000000000000000000000000000000000000000007bffffffffffffffffffffffffffffffffffffffffffffffffffffffff1916827bffffffffffffffffffffffffffffffffffffffffffffffffffffffff19161480610e2f57507f5b5e139f000000000000000000000000000000000000000000000000000000007bffffffffffffffffffffffffffffffffffffffffffffffffffffffff1916827bffffffffffffffffffffffffffffffffffffffffffffffffffffffff1916145b80610e3f5750610e3e82611813565b5b9050919050565b600080610e528361187d565b9050600073ffffffffffffffffffffffffffffffffffffffff168173ffffffffffffffffffffffffffffffffffffffff1603610ec557826040517f7e273289000000000000000000000000000000000000000000000000000000008152600401610ebc919061227d565b60405180910390fd5b80915050919050565b60006004600083815260200190815260200160002060009054906101000a900473ffffffffffffffffffffffffffffffffffffffff169050919050565b600033905090565b610f2083838360016118ba565b505050565b600080610f318461187d565b9050600073ffffffffffffffffffffffffffffffffffffffff168373ffffffffffffffffffffffffffffffffffffffff1614610f7357610f72818486611a7f565b5b600073ffffffffffffffffffffffffffffffffffffffff168173ffffffffffffffffffffffffffffffffffffffff161461100457610fb56000856000806118ba565b6001600360008373ffffffffffffffffffffffffffffffffffffffff1673ffffffffffffffffffffffffffffffffffffffff168152602001908152602001600020600082825403925050819055505b600073ffffffffffffffffffffffffffffffffffffffff168573ffffffffffffffffffffffffffffffffffffffff1614611087576001600360008773ffffffffffffffffffffffffffffffffffffffff1673ffffffffffffffffffffffffffffffffffffffff168152602001908152602001600020600082825401925050819055505b846002600086815260200190815260200160002060006101000a81548173ffffffffffffffffffffffffffffffffffffffff021916908373ffffffffffffffffffffffffffffffffffffffff160217905550838573ffffffffffffffffffffffffffffffffffffffff168273ffffffffffffffffffffffffffffffffffffffff167fddf252ad1be2c89b69c2b068fc378daa952ba7f163c4a11628f55a4df523b3ef60405160405180910390a4809150509392505050565b600073ffffffffffffffffffffffffffffffffffffffff168273ffffffffffffffffffffffffffffffffffffffff16036111b15760006040517f64a0ae920000000000000000000000000000000000000000000000000000000081526004016111a89190612167565b60405180910390fd5b60006111bf83836000610f25565b9050600073ffffffffffffffffffffffffffffffffffffffff168173ffffffffffffffffffffffffffffffffffffffff160361123257816040517f7e273289000000000000000000000000000000000000000000000000000000008152600401611229919061227d565b60405180910390fd5b8373ffffffffffffffffffffffffffffffffffffffff168173ffffffffffffffffffffffffffffffffffffffff16146112a6578382826040517f64283d7b00000000000000000000000000000000000000000000000000000000815260040161129d93929190612659565b60405180910390fd5b50505050565b6112b4610f0b565b73ffffffffffffffffffffffffffffffffffffffff166112d26108b8565b73ffffffffffffffffffffffffffffffffffffffff1614611331576112f5610f0b565b6040517f118cdaa70000000000000000000000000000000000000000000000000000000081526004016113289190612167565b60405180910390fd5b565b6000600760009054906101000a900473ffffffffffffffffffffffffffffffffffffffff16905081600760006101000a81548173ffffffffffffffffffffffffffffffffffffffff021916908373ffffffffffffffffffffffffffffffffffffffff1602179055508173ffffffffffffffffffffffffffffffffffffffff168173ffffffffffffffffffffffffffffffffffffffff167f8be0079c531659141344cd1fd0a4f28419497f9722a3daafe3b4186f6b6457e060405160405180910390a35050565b600073ffffffffffffffffffffffffffffffffffffffff168273ffffffffffffffffffffffffffffffffffffffff160361146a57816040517f5b08ba180000000000000000000000000000000000000000000000000000000081526004016114619190612167565b60405180910390fd5b80600560008573ffffffffffffffffffffffffffffffffffffffff1673ffffffffffffffffffffffffffffffffffffffff16815260200190815260200160002060008473ffffffffffffffffffffffffffffffffffffffff1673ffffffffffffffffffffffffffffffffffffffff16815260200190815260200160002060006101000a81548160ff0219169083151502179055508173ffffffffffffffffffffffffffffffffffffffff168373ffffffffffffffffffffffffffffffffffffffff167f17307eab39ab6107e8899845ad3d59bd9653f200f220920489ca2b5937696c318360405161155b9190611ff6565b60405180910390a3505050565b60008373ffffffffffffffffffffffffffffffffffffffff163b1115611712578273ffffffffffffffffffffffffffffffffffffffff1663150b7a02868685856040518563ffffffff1660e01b81526004016115c794939291906128f1565b6020604051808303816000875af192505050801561160357506040513d601f19601f820116820180604052508101906116009190612952565b60015b611687573d8060008114611633576040519150601f19603f3d011682016040523d82523d6000602084013e611638565b606091505b50600081510361167f57836040517f64a0ae920000000000000000000000000000000000000000000000000000000081526004016116769190612167565b60405180910390fd5b805181602001fd5b63150b7a0260e01b7bffffffffffffffffffffffffffffffffffffffffffffffffffffffff1916817bffffffffffffffffffffffffffffffffffffffffffffffffffffffff19161461171057836040517f64a0ae920000000000000000000000000000000000000000000000000000000081526004016117079190612167565b60405180910390fd5b505b5050505050565b606060405180602001604052806000815250905090565b606061173b82610e46565b506000611746611719565b905060008151116117665760405180602001604052806000815250611791565b8061177084611b43565b6040516020016117819291906127d8565b6040516020818303038152906040525b915050919050565b6117b3828260405180602001604052806000815250611c11565b5050565b806006600084815260200190815260200160002090816117d79190612b2b565b507ff8e1a15aba9398e019f0b49df1a4fde98ee17ae345cb5f6b5e2c27f5033e8ce782604051611807919061227d565b60405180910390a15050565b60007f01ffc9a7000000000000000000000000000000000000000000000000000000007bffffffffffffffffffffffffffffffffffffffffffffffffffffffff1916827bffffffffffffffffffffffffffffffffffffffffffffffffffffffff1916149050919050565b60006002600083815260200190815260200160002060009054906101000a900473ffffffffffffffffffffffffffffffffffffffff169050919050565b80806118f35750600073ffffffffffffffffffffffffffffffffffffffff168273ffffffffffffffffffffffffffffffffffffffff1614155b15611a2757600061190384610e46565b9050600073ffffffffffffffffffffffffffffffffffffffff168373ffffffffffffffffffffffffffffffffffffffff161415801561196e57508273ffffffffffffffffffffffffffffffffffffffff168173ffffffffffffffffffffffffffffffffffffffff1614155b8015611981575061197f8184610ae0565b155b156119c357826040517fa9fbf51f0000000000000000000000000000000000000000000000000000000081526004016119ba9190612167565b60405180910390fd5b8115611a2557838573ffffffffffffffffffffffffffffffffffffffff168273ffffffffffffffffffffffffffffffffffffffff167f8c5be1e5ebec7d5bd14f71427d1e84f3dd0314c0f7b2291e5b200ac8c7c3b92560405160405180910390a45b505b836004600085815260200190815260200160002060006101000a81548173ffffffffffffffffffffffffffffffffffffffff021916908373ffffffffffffffffffffffffffffffffffffffff16021790555050505050565b611a8a838383611c35565b611b3e57600073ffffffffffffffffffffffffffffffffffffffff168373ffffffffffffffffffffffffffffffffffffffff1603611aff57806040517f7e273289000000000000000000000000000000000000000000000000000000008152600401611af6919061227d565b60405180910390fd5b81816040517f177e802f000000000000000000000000000000000000000000000000000000008152600401611b35929190612bfd565b60405180910390fd5b505050565b606060006001611b5284611cf6565b01905060008167ffffffffffffffff811115611b7157611b7061230e565b5b6040519080825280601f01601f191660200182016040528015611ba35781602001600182028036833780820191505090505b509050600082602001820190505b600115611c06578080600190039150507f3031323334353637383961626364656600000000000000000000000000000000600a86061a8153600a8581611bfa57611bf9612c26565b5b04945060008503611bb1575b819350505050919050565b611c1b8383611e49565b611c30611c26610f0b565b6000858585611568565b505050565b60008073ffffffffffffffffffffffffffffffffffffffff168373ffffffffffffffffffffffffffffffffffffffff1614158015611ced57508273ffffffffffffffffffffffffffffffffffffffff168473ffffffffffffffffffffffffffffffffffffffff161480611cae5750611cad8484610ae0565b5b80611cec57508273ffffffffffffffffffffffffffffffffffffffff16611cd483610ece565b73ffffffffffffffffffffffffffffffffffffffff16145b5b90509392505050565b600080600090507a184f03e93ff9f4daa797ed6e38ed64bf6a1f0100000000000000008310611d54577a184f03e93ff9f4daa797ed6e38ed64bf6a1f0100000000000000008381611d4a57611d49612c26565b5b0492506040810190505b6d04ee2d6d415b85acef81000000008310611d91576d04ee2d6d415b85acef81000000008381611d8757611d86612c26565b5b0492506020810190505b662386f26fc100008310611dc057662386f26fc100008381611db657611db5612c26565b5b0492506010810190505b6305f5e1008310611de9576305f5e1008381611ddf57611dde612c26565b5b0492506008810190505b6127108310611e0e576127108381611e0457611e03612c26565b5b0492506004810190505b60648310611e315760648381611e2757611e26612c26565b5b0492506002810190505b600a8310611e40576001810190505b80915050919050565b600073ffffffffffffffffffffffffffffffffffffffff168273ffffffffffffffffffffffffffffffffffffffff1603611ebb5760006040517f64a0ae92000000000000000000000000000000000000000000000000000000008152600401611eb29190612167565b60405180910390fd5b6000611ec983836000610f25565b9050600073ffffffffffffffffffffffffffffffffffffffff168173ffffffffffffffffffffffffffffffffffffffff1614611f3d5760006040517f73c6ac6e000000000000000000000000000000000000000000000000000000008152600401611f349190612167565b60405180910390fd5b505050565b6000604051905090565b600080fd5b600080fd5b60007fffffffff0000000000000000000000000000000000000000000000000000000082169050919050565b611f8b81611f56565b8114611f9657600080fd5b50565b600081359050611fa881611f82565b92915050565b600060208284031215611fc457611fc3611f4c565b5b6000611fd284828501611f99565b91505092915050565b60008115159050919050565b611ff081611fdb565b82525050565b600060208201905061200b6000830184611fe7565b92915050565b600081519050919050565b600082825260208201905092915050565b60005b8381101561204b578082015181840152602081019050612030565b60008484015250505050565b6000601f19601f8301169050919050565b600061207382612011565b61207d818561201c565b935061208d81856020860161202d565b61209681612057565b840191505092915050565b600060208201905081810360008301526120bb8184612068565b905092915050565b6000819050919050565b6120d6816120c3565b81146120e157600080fd5b50565b6000813590506120f3816120cd565b92915050565b60006020828403121561210f5761210e611f4c565b5b600061211d848285016120e4565b91505092915050565b600073ffffffffffffffffffffffffffffffffffffffff82169050919050565b600061215182612126565b9050919050565b61216181612146565b82525050565b600060208201905061217c6000830184612158565b92915050565b61218b81612146565b811461219657600080fd5b50565b6000813590506121a881612182565b92915050565b600080604083850312156121c5576121c4611f4c565b5b60006121d385828601612199565b92505060206121e4858286016120e4565b9150509250929050565b60008060006060848603121561220757612206611f4c565b5b600061221586828701612199565b935050602061222686828701612199565b9250506040612237868287016120e4565b9150509250925092565b60006020828403121561225757612256611f4c565b5b600061226584828501612199565b91505092915050565b612277816120c3565b82525050565b6000602082019050612292600083018461226e565b92915050565b6122a181611fdb565b81146122ac57600080fd5b50565b6000813590506122be81612298565b92915050565b600080604083850312156122db576122da611f4c565b5b60006122e985828601612199565b92505060206122fa858286016122af565b9150509250929050565b600080fd5b600080fd5b7f4e487b7100000000000000000000000000000000000000000000000000000000600052604160045260246000fd5b61234682612057565b810181811067ffffffffffffffff821117156123655761236461230e565b5b80604052505050565b6000612378611f42565b9050612384828261233d565b919050565b600067ffffffffffffffff8211156123a4576123a361230e565b5b6123ad82612057565b9050602081019050919050565b82818337600083830152505050565b60006123dc6123d784612389565b61236e565b9050828152602081018484840111156123f8576123f7612309565b5b6124038482856123ba565b509392505050565b600082601f8301126124205761241f612304565b5b81356124308482602086016123c9565b91505092915050565b6000806000806080858703121561245357612452611f4c565b5b600061246187828801612199565b945050602061247287828801612199565b9350506040612483878288016120e4565b925050606085013567ffffffffffffffff8111156124a4576124a3611f51565b5b6124b08782880161240b565b91505092959194509250565b600080604083850312156124d3576124d2611f4c565b5b60006124e185828601612199565b92505060206124f285828601612199565b9150509250929050565b600067ffffffffffffffff8211156125175761251661230e565b5b61252082612057565b9050602081019050919050565b600061254061253b846124fc565b61236e565b90508281526020810184848401111561255c5761255b612309565b5b6125678482856123ba565b509392505050565b600082601f83011261258457612583612304565b5b813561259484826020860161252d565b91505092915050565b600080604083850312156125b4576125b3611f4c565b5b60006125c285828601612199565b925050602083013567ffffffffffffffff8111156125e3576125e2611f51565b5b6125ef8582860161256f565b9150509250929050565b7f4e487b7100000000000000000000000000000000000000000000000000000000600052602260045260246000fd5b6000600282049050600182168061264057607f821691505b602082108103612653576126526125f9565b5b50919050565b600060608201905061266e6000830186612158565b61267b602083018561226e565b6126886040830184612158565b949350505050565b7f43616c6c6572206973206e6f742074686520746f6b656e206f776e6572000000600082015250565b60006126c6601d8361201c565b91506126d182612690565b602082019050919050565b600060208201905081810360008301526126f5816126b9565b9050919050565b7f4e487b7100000000000000000000000000000000000000000000000000000000600052601160045260246000fd5b6000612736826120c3565b915060008203612749576127486126fc565b5b600182039050919050565b600061275f826120c3565b91507fffffffffffffffffffffffffffffffffffffffffffffffffffffffffffffffff8203612791576127906126fc565b5b600182019050919050565b600081905092915050565b60006127b282612011565b6127bc818561279c565b93506127cc81856020860161202d565b80840191505092915050565b60006127e482856127a7565b91506127f082846127a7565b91508190509392505050565b7f4d6178204e4654206c696d697420726561636865640000000000000000000000600082015250565b600061283260158361201c565b915061283d826127fc565b602082019050919050565b6000602082019050818103600083015261286181612825565b9050919050565b6000612873826120c3565b915061287e836120c3565b9250828201905080821115612896576128956126fc565b5b92915050565b600081519050919050565b600082825260208201905092915050565b60006128c38261289c565b6128cd81856128a7565b93506128dd81856020860161202d565b6128e681612057565b840191505092915050565b60006080820190506129066000830187612158565b6129136020830186612158565b612920604083018561226e565b818103606083015261293281846128b8565b905095945050505050565b60008151905061294c81611f82565b92915050565b60006020828403121561296857612967611f4c565b5b60006129768482850161293d565b91505092915050565b60008190508160005260206000209050919050565b60006020601f8301049050919050565b600082821b905092915050565b6000600883026129e17fffffffffffffffffffffffffffffffffffffffffffffffffffffffffffffffff826129a4565b6129eb86836129a4565b95508019841693508086168417925050509392505050565b6000819050919050565b6000612a28612a23612a1e846120c3565b612a03565b6120c3565b9050919050565b6000819050919050565b612a4283612a0d565b612a56612a4e82612a2f565b8484546129b1565b825550505050565b600090565b612a6b612a5e565b612a76818484612a39565b505050565b5b81811015612a9a57612a8f600082612a63565b600181019050612a7c565b5050565b601f821115612adf57612ab08161297f565b612ab984612994565b81016020851015612ac8578190505b612adc612ad485612994565b830182612a7b565b50505b505050565b600082821c905092915050565b6000612b0260001984600802612ae4565b1980831691505092915050565b6000612b1b8383612af1565b9150826002028217905092915050565b612b3482612011565b67ffffffffffffffff811115612b4d57612b4c61230e565b5b612b578254612628565b612b62828285612a9e565b600060209050601f831160018114612b955760008415612b83578287015190505b612b8d8582612b0f565b865550612bf5565b601f198416612ba38661297f565b60005b82811015612bcb57848901518255600182019150602085019450602081019050612ba6565b86831015612be85784890151612be4601f891682612af1565b8355505b6001600288020188555050505b505050505050565b6000604082019050612c126000830185612158565b612c1f602083018461226e565b9392505050565b7f4e487b7100000000000000000000000000000000000000000000000000000000600052601260045260246000fdfea26469706673582212206479a45972cd2611fe793ca940135903e5b83eabea7cdb3d148d5a2752f21ff564736f6c634300081b0033",
  "linkReferences": {},
  "deployedLinkReferences": {}
}